S02B0000443A5C4F6E6544726976655C4650545C325F4D43505C315F41737369676E6D656E745C417373365FAE
S113800000600020D580000043810000458100000D
S1138010000000000000000000000000000000005C
S11380200000000000000000000000004781000084
S11380300000000000000000498100004B810000A6
S11380404F810000578100005F81000067810000BC
S11380506F810000778100007F810000878100002C
S11380608F810000978100009F810000A78100009C
S1138070AF810000B7810000BF810000C78100000C
S1138080CF810000D7810000DF810000E78100007C
S1138090EF810000F7810000558500000782000091
S11380A00F820000178200001F8200002782000058
S11380B02F820000378200003F820000E584000028
S11380C0BC8D000000E0FF1F0000000000E0FF1F67
S11380D0E400000010B572B600F09AFB0D4B07E007
S11380E0186859681C000C349A6800F019F82300C9
S11380F0094A9342F4D306E018681C00083459680E
S113810000F017F82300054A9342F5D362B600F055
S1138110FEFDFEE7C0800000CC800000D48000009B
S113812010B5002302E010C810C104339342FAD3FF
S113813010BD002302E0002204C004338B42FAD3B2
S11381407047FEE7FEE7FEE7FEE7FEE7FEE710B551
S1138150FFF7FCFF10BD10B5FFF7F8FF10BD10B519
S1138160FFF7F4FF10BD10B5FFF7F0FF10BD10B519
S1138170FFF7ECFF10BD10B5FFF7E8FF10BD10B519
S1138180FFF7E4FF10BD10B5FFF7E0FF10BD10B519
S113819000F0E8FA10BD10B500F0F4FA10BD10B507
S11381A0FFF7D4FF10BD10B5FFF7D0FF10BD10B519
S11381B000F0F8FA10BD10B500F006FB10BD10B5C4
S11381C000F014FB10BD10B5FFF7C0FF10BD10B5D3
S11381D0FFF7BCFF10BD10B5FFF7B8FF10BD10B519
S11381E0FFF7B4FF10BD10B5FFF7B0FF10BD10B519
S11381F0FFF7ACFF10BD10B5FFF7A8FF10BD10B519
S1138200FFF7A4FF10BD10B5FFF7A0FF10BD10B518
S1138210FFF79CFF10BD10B5FFF798FF10BD10B518
S1138220FFF794FF10BD10B5FFF790FF10BD10B518
S1138230FFF78CFF10BD10B5FFF788FF10BD10B518
S1138240FFF784FF10BD10B5FFF780FF10BDFFFFDF
S1138250FFFFFFFFFFFFFFFFFFFFFFFFFFFFFFFF2A
S1138260FFFFFFFFFFFFFFFFFFFFFFFFFFFFFFFF1A
S1138270FFFFFFFFFFFFFFFFFFFFFFFFFFFFFFFF0A
S1138280FFFFFFFFFFFFFFFFFFFFFFFFFFFFFFFFFA
S1138290FFFFFFFFFFFFFFFFFFFFFFFFFFFFFFFFEA
S11382A0FFFFFFFFFFFFFFFFFFFFFFFFFFFFFFFFDA
S11382B0FFFFFFFFFFFFFFFFFFFFFFFFFFFFFFFFCA
S11382C0FFFFFFFFFFFFFFFFFFFFFFFFFFFFFFFFBA
S11382D0FFFFFFFFFFFFFFFFFFFFFFFFFFFFFFFFAA
S11382E0FFFFFFFFFFFFFFFFFFFFFFFFFFFFFFFF9A
S11382F0FFFFFFFFFFFFFFFFFFFFFFFFFFFFFFFF8A
S1138300FFFFFFFFFFFFFFFFFFFFFFFFFFFFFFFF79
S1138310FFFFFFFFFFFFFFFFFFFFFFFFFFFFFFFF69
S1138320FFFFFFFFFFFFFFFFFFFFFFFFFFFFFFFF59
S1138330FFFFFFFFFFFFFFFFFFFFFFFFFFFFFFFF49
S1138340FFFFFFFFFFFFFFFFFFFFFFFFFFFFFFFF39
S1138350FFFFFFFFFFFFFFFFFFFFFFFFFFFFFFFF29
S1138360FFFFFFFFFFFFFFFFFFFFFFFFFFFFFFFF19
S1138370FFFFFFFFFFFFFFFFFFFFFFFFFFFFFFFF09
S1138380FFFFFFFFFFFFFFFFFFFFFFFFFFFFFFFFF9
S1138390FFFFFFFFFFFFFFFFFFFFFFFFFFFFFFFFE9
S11383A0FFFFFFFFFFFFFFFFFFFFFFFFFFFFFFFFD9
S11383B0FFFFFFFFFFFFFFFFFFFFFFFFFFFFFFFFC9
S11383C0FFFFFFFFFFFFFFFFFFFFFFFFFFFFFFFFB9
S11383D0FFFFFFFFFFFFFFFFFFFFFFFFFFFFFFFFA9
S11383E0FFFFFFFFFFFFFFFFFFFFFFFFFFFFFFFF99
S11383F0FFFFFFFFFFFFFFFFFFFFFFFFFFFFFFFF89
S1138400FFFFFFFFFFFFFFFFFFFFFFFFFEFFFFFF79
S113841080B500AF1B4A1C4BD3581A498022520422
S11384201343194A8B50174A1649174BD358164A07
S11384308B50144A154BD3581249802252041343CB
S1138440124A8B50124B1A68114B08210A431A60C6
S11384500F4B104A9A600E4B24225A630C4B002295
S11384609A630B4B2422DA61094B00221A62084AF0
S11384708423D3580649C022134384228B50C04618
S1138480BD4680BD00700440041000003C10000094
S11384900080034010A4000080B500AF0D4A0E4BCD
S11384A0D3580C498022120413430B4A8B500B4BB4
S11384B01A680A4B02218A431A60084A80235B0027
S11384C00749D150054A84235B000321D150C0469B
S11384D0BD4680BD007004403C10000000700340A5
S11384E0289A010080B500AF184B1A6B80235B04F7
S11384F0134010D0164B1B78092B05D8144B1B784E
S11385000133DAB2124B1A70104B1A6B0F4B8021E5
S113851049040A431A630D4BDA6880235B04134051
S113852010D00B4B1B78002B05D0094B1B78013B5B
S1138530DAB2074B1A70054BDA68044B8021490400
S11385400A43DA60C046BD4680BDC04600B0044060
S1138550E1E0FF1F80B582B000AF154B1B78632BA1
S113856008D8134B1A78134B1B78D318DAB2104B74
S11385701A7002E00E4B00221A700D4B1B781A0081
S11385801300DB009B1A1A01D21A93001A007A60B6
S1138590094B7A689A63084B7A681A62074A8623F9
S11385A05B000121D150C046BD4602B080BDC0462B
S11385B0E0E0FF1FE1E0FF1F008003400070034084
S11385C080B500AF3C4A3D4BD3583B498022120151
S11385D013433A4A8B50384A384BD3583649802291
S11385E052011343354A8B50334A344BD3583249E2
S11385F0802292011343314A8B50314B5A69304BDC
S11386008021C9000A435A612E4B5A6F2D4BC02159
S113861089000A435A672C4B1A6B2B4B8021490063
S11386200A431A63284BDA68274B802149000A431E
S1138630DA60254B1A6B244B03210A431A63224B3D
S11386401A6B214BA02109030A431A631E4BDA68F3
S11386501D4B03210A43DA601B4BDA681A4BA02135
S113866009030A43DA60194B5A69184B05210A4376
S11386705A61174B5A69164B1D210A435A61154B0F
S11386805A69144B0C218A435A61124B5A69114B93
S113869003218A435A610D4B9A680C4B20210A43EB
S11386A09A600B4B9A680A4B802189050A439A60A9
S11386B0C046BD4680BDC04600700440381000006E
S11386C000C0044000D0044000B00440C0F00F409B
S11386D000F10F4080F00F4080B582B000AF02007F
S11386E0FB1D1A70FB1D1B787F2B09D8FB1D1B7803
S11386F01A001F231A40044B012191400A001A60FA
S1138700C046BD4602B080BD00E100E080B582B045
S113871000AF786039607B68DB78DBB21A00102325
S1138720134006D17B689B78DBB21A0020231340E8
S113873006D00A4B1B6839687A681000984705E030
S1138740074B1B6839687A6810009847BFF34F8F4E
S1138750C046C046BD4602B080BDC04608E0FF1F0B
S11387600CE0FF1F80B500AF044B1B68044A1900DE
S11387701000FFF7CBFFC046BD4680BD00E0FF1FE1
S11387800060064080B500AF044B5B68044A1900E2
S11387901000FFF7BBFFC046BD4680BD00E0FF1FD1
S11387A00070064080B500AF044B1A68044B1B6888
S11387B0044819009047C046BD4680BD14E0FF1F21
S11387C010E0FF1F00A0064080B500AF044B1A68FC
S11387D0044B5B68044819009047C046BD4680BD01
S11387E024E0FF1F18E0FF1F00B0064080B500AF73
S11387F0044B1A68044B9B68044819009047C04610
S1138800BD4680BD24E0FF1F18E0FF1F00C00640E6
S113881080B500AF044A88235B010021D15000F0E9
S113882071FAC046BD4680BD007004402022C36872
S113883010B59343C3608269836A04009A420CD0E2
S113884000F014F8E268074B1A4010231343E36066
S1138850A36AA3612369E3622360E368024A1340C5
S1138860E36010BDEFCFFFFFBFBFFFFF70B5040093
S1138870134AE36805691A400168C06AE26082220B
S11388801A40022A02D00120404270BDDB030CD5FD
S1138890814200D201008D4209D10023094AA3601C
S11388A0E368E56213402560E3600020EDE7220001
S11388B02800491B00F008F80028EED0E3E7C04682
S11388C0FFFFF7FFFFFFFEFFF7B5D5680F001400A9
S11388D056690190EB0205D5102330001D4300F0CA
S11388E057FAA061104B1D420FD03000A16900F06F
S11388F058FA002806DA80230120E2684042134334
S1138900E3600FE0094B1D40E5603A003000019937
S113891000F04DFA4300A2695B08FB1AD318A36167
S11389200028E8D1FEBDC04610000200EFFFFDFFA5
S1138930F7B54369C6680193364B04000D000092F5
S11389401E420BD0019800F026FA071E06D1009BA8
S1138950012B06D0022B2DD0002B06D00227380085
S1138960FEBD200000F05AF82D18002DF6DBB304EC
S113897004D52368E26A9A4200D2E362A369AB4257
S11389800EDCE16A22688A4200D20A002169D0180A
S11389900091401AA84203DB206B1918A94228DC75
S11389A020231E430023A562A36063601A4B1E406C
S11389B0E660D4E7019800F0EBF9E268002804DAF5
S11389C0802313430127E360C9E7E16A23689942DE
S11389D000D90B00A1695B1821695B1A920603D5C3
S11389E0A26A934200DA1300834200DA0300ED180E
S11389F0BBE7EB1AB50701D5181AA060F00703D539
S1138A000099521A9A1A6260009AD11820232160A0
S1138A109E43CBE703001000BFCFF7FFC1680200FD
S1138A208B0705D1212201200E4B40421A6070476A
S1138A3020230B4009030AD5002B02D0806A013899
S1138A40F5E793690068C0181369C01AF7E7002BAB
S1138A5001D0806AEBE70368816900695B18181A22
S1138A60E5E7C046DCE0FF1F70B5184C184922004A
S1138A70002000F08BF8802380225B00002120007E
S1138A80D20000F02FF8134C134D220029000120CE
S1138A9000F07CF8802380225B0000212000D200BB
S1138AA000F020F80D4B1B68022B0DDD0C4C290047
S1138AB02200022000F06AF8802380220021200096
S1138AC05B00D20000F00EF870BDC04628E0FF1F26
S1138AD0B88D000064E0FF1FBA8D0000B48D000063
S1138AE0A0E0FF1FF0B5C56804000120AE070CD05C
S1138AF080208000824213D08020C000824205D0B2
S1138B008020400082420BD0FF38F0BD21000123B9
S1138B1024311543002021612160E361E560F4E71D
S1138B20024F5E1E0120BE42F3D9EEE7FEFFFF00B6
S1138B300300032110B51A000B4219D1114C13681C
S1138B40114959189943214219D0DCB2511C002C07
S1138B500BD0FF242402911C234206D0FF210904D8
S1138B600B40591E8B41D318D91C0130081A05E05B
S1138B7001335C1E2478002CDDD1101A10BD0432A0
S1138B80DDE7C04680808080FFFEFEFEF7B50D0065
S1138B9001901000140000F033F82B78722B1CD0D5
S1138BA0772B1DD0612B26D1144A593B0220691C16
S1138BB0032784460426012508782B2813D062282D
S1138BC016D0E260019A62611B0704D502220021DB
S1138BD02000FFF7ADFE2000FEBD00230122E5E7E3
S1138BE004230222E2E760463A4303430131E3E708
S1138BF032432B43FAE70024EDE7C046028000002D
S1138C00F0B5C56804004769066989B0AB0720D090
S1138C102B0716D400F022F8380000F0B6F82B0524
S1138C2002D5300000F07DF80B4BAD0DAD059D4233
S1138C3007D120226846216A00F0B6F8684600F0A1
S1138C4086F83C220021200000F067F8002009B0DB
S1138C50F0BD01204042FAE7000080ADF8B50028DD
S1138C6012D000F01BF805002800F8BD380060435E
S1138C70084BC01800F012F8002801D001256D42FD
S1138C800134A642F2DCEFE7034B040005003C2765
S1138C901E68F6E728E0FF1FB48D0000C36870B5B6
S1138CA003221E0004001640134211D09B0611D566
S1138CB0856AFFF7BBFDE368094A20001340E360BF
S1138CC0FFF7D4FD0022060029002000FFF730FE44
S1138CD0300070BD83690568ED180369ED1AEAE791
S1138CE0FFCFFFFF80B500AFFFF76AFCFFF790FBF3
S1138CF0FFF7D2FB1620FFF7EFFC1F20FFF7ECFC79
S1138D00C046FDE780B500AFC046BD4680BD10B586
S1138D10FFF7AAFEFFF7E6FF10BD10B500F020F83C
S1138D2010BD10B5002811D080210C384905016010
S1138D308268002A0AD013688B4207D143685468BA
S1138D4003331B19436093688360F1E710BD10B5CA
S1138D500400FFF7EDFE0100200000F01FF810BD35
S1138D608446043A09D3830707D109060B0A194339
S1138D700B0C1943043A02C0FCD2043203D0017034
S1138D800130013AFBD160467047012040427047F0
S1138D900120404270470120404270470120404278
S1138DA07047012040427047012040427047100044
S10F8DB07047FFFF030000007200770012
S90380D5A7
